:100000000C94CE010C94DB110C94B0110C9485115E
:100010000C945A110C942F110C9404110C94D910B7
:100020000C94AE100C94FF010C94FF010C94FF0192
:100030000C94FF010C945A0F0C94FF010C94FF01D7
:100040000C94FF010C94FF010C94FF010C94FF0130
:100050000C94FF010C94FF010C94FF010C94C91344
:100060000C94FF010C9430120C9406120C94FF01B6
:100070000C94FF010C94FF010C94FF010C94FF0100
:100080000C94FF010C94FF010C94FF010C94FF01F0
:100090000C94FF010C94FF010C94FF010C94FF01E0
:1000A0000C94FF010C94FF010C94FF010C94FF01D0
:1000B0000C94FF010C94FF010C94FF010C94FF01C0
:1000C0000C94FF010C94FF010C94FF010C94FF01B0
:1000D0000C94FF010C94FF010C94FF010C94FF01A0
:1000E0000C94FF0179067E0683068D06970610079D
:1000F000A106A906B106BB06C506CF06DE06E806C0
:100100001007F206FC060607B612B912A812AC12C6
:10011000B012F012BD12C112C712CB12CF12D512FB
:10012000D912DD12F012E312E712EB120C943B0627
:100130000C94DE060C94BB060C9410070C94ED0492
:100140000C949D070C940A0F0C94E7120C9406076C
:100150000C9436030C94C1120C9483030C94170670
:100160000C943A070C948D060C94D5120C94B01292
:100170000C94CE050C94AD030C9425100C94A4049F
:100180000C9417040C9491080C94C7120C94AD04B1
:100190000C9402100C944B020C9495090C94970645
:1001A0000C94E1030C941D0D0C94B1060C94A81250
:1001B0000C94B9120C948C100C941D040C94A90688
:1001C0000C94F2060C94D1160C9451020C943F033B
:1001D0000C94B6120C942D030C94D30F0C94AA0417
:1001E0000C94CB050C94D40F0C941A040C94EB12C1
:1001F0000C9433100C943F100C94F3040C94E80608
:100200000C94D9120C9401020C9479060C94260FCC
:100210000C94A1040C94FC060C94DD120C944E0278
:100220000C94F90D0C94EC070C94AC120C94D10DB9
:100230000C94D1050C94A1060C94D7070C94D20E03
:100240000C9446020C94CF120C9433030C94CF06FA
:100250000C94C5060C94E3120C94E10C0C94F0126F
:100260000C94CB120C94A7040C9483060C943903C1
:100270000C947E060C943A080C94BD120C94300336
:100280000C94EE0E0C94F0040C943C030C94550268
:100290000C94111000002100240027002A002D00DA
:1002A0003000330001010000040107010A010000D1
:1002B0002200250028002B002E003100340002010E
:1002C0000000050108010B010505050507050808E3
:1002D0000808020202020A0A0808040404040101D0
:1002E00001010101010103030303030303030407E5
:1002F00007070C0C0C0C0C0C0C0C0202020206067C
:100300000606060606060B0B0B0B0B0B0B0B01026E
:100310001020200808102040102040800201020117
:1003200008040201010204081020408080402010CF
:100330000804020180040201804020100804020128
:100340000804020101020408102040800102040890
:100350001020408000000A0B02090C0D0E08070354
:100360000401000000000000000000000000000088
:10037000000000000000000000000000000000007D
:10038000121110000000000000000000000000003A
:1003900000000000000000000000D11611241FBE64
:1003A000CFEFD1E2DEBFCDBF00E00CBF15E0A0E093
:1003B000B2E0EEE1F5E300E00BBF02C007900D9262
:1003C000A632B107D9F72CE0A6E2B5E001C01D9234
:1003D000A635B207E1F711E0CEECD1E000E006C0AF
:1003E00021970109802FFE010E944318CD3CD107BF
:1003F00080E00807A9F70E9430140C948D1A0C9421
:100400000000FC01918D228D892F90E0805C9F4F30
:10041000821B91098F739927089580E090E0892BC2
:1004200021F00E943510811125C080E090E0892BD9
:1004300041F080E090E0892B21F00E9400008111C2
:100440001CC080E090E0892B41F080E090E0892B97
:1004500021F00E940000811113C080E090E0892B00
:10046000A1F080E090E0892B81F00E9400008111D2
:100470000AC008950E940000D8CF0E940000E1CF7A
:100480000E940000EACF0C94000008958E579B4F05
:10049000FC01808108958CED92E008958DEF92E04B
:1004A0000895FC0183A194A108958F929F92AF9229
:1004B000BF92CF92DF92EF92FF920F931F93CF9351
:1004C000DF9300D01F921F92CDB7DEB7643671055F
:1004D0003CF0FC01EE57FB4F2081222309F479C048
:1004E000DA015B018C01BC01655E7D4FED91FC91F1
:1004F0000190F081E02DCA0119957C0168012CEE74
:10050000C21A2DEFD20A2FEFD6012C93F801EB5E21
:10051000FD4F2EEF20833196808331969083319664
:10052000980F909590833196A0821696BC9245E0E4
:1005300050E020E030E0C70107964817590730F433
:100540006191260F311D4F5F5F4FF7CFB8E0EB0E83
:10055000F11C800F911FFC01EC5EFD4F2095208364
:10056000E1E0EE16E2E0FE06C0F457014601C401E8
:100570008C199D098E159F0574F5D80112968D91E1
:100580009C911397F40161914F01DC01ED91FC9175
:100590000190F081E02D1995EACF8CE592E09A83E5
:1005A000898383E08B8386E193E09D838C83D801EC
:1005B000ED91FC910190F081E02DAE014F5F5F4F16
:1005C00067E070E0C8011995AA24AA94BB24BA94E4
:1005D00002C0A12CB12CC5010F900F900F900F906D
:1005E0000F90DF91CF911F910F91FF90EF90DF90CF
:1005F000CF90BF90AF909F908F9008950F931F93CF
:10060000CF93DF93DC01AF5ABF4F2C912223E9F047
:10061000FC01E05BFF4F2081EC0134E0239FC00D23
:10062000D11D1124088119812A813B81EB010883A6
:1006300019832A833B8380818F5F80839C919150B3
:100640009C93843121F4108202C080E001C081E0DB
:10065000DF91CF911F910F9108958FE493E008955A
:1006600080E793E008958AE893E008958BEA93E0A9
:10067000089584EC93E0089585EE93E00895DF9269
:10068000EF92FF920F931F93CF93DF93EC018B01B7
:100690008A81FB018083118212821382D12C84E033
:1006A000E82EF12C8A81D801AE0DBF1DD816A0F41A
:1006B0008F859889FCE0DF9E800D911D1124FC013F
:1006C00020813181F90120813181BD01F901199524
:1006D000E80EF91ED394E6CF89898C938A89119606
:1006E0008C9311978B8912968C9312978C89139601
:1006F0008C93C7010496DF91CF911F910F91FF90CA
:10070000EF90DF9008950F931F93CF93DF93EC0149
:100710008B0102960E943F032F89F801E80FF91F11
:1007200020831182128213820496F801E80FF91FC8
:1007300090E09F01201B310B8F89981740F4A98D01
:10074000BA8DA90FB11D8C9181939F5FF2CFC90122
:10075000DF91CF911F910F9108950F931F93CF9326
:10076000DF938C01EB0102960E943F03FE01E80F2C
:10077000F91FD80157962C9120831182128204967A
:10078000138240E03296E8012F894217A8F4242F03
:1007900030E0220F331FAA8DBB8DA20FB31F5C91D7
:1007A00052836A8D7B8DDB01A20FB31F11962C91B2
:1007B000238302964F5FE6CFDF91CF911F910F9178
:1007C00008950F931F93CF93DF938C01EB01029653
:1007D0000E943F03FE01E80FF91FD80157962C91A4
:1007E0002083118212820496138220E03496E8015D
:1007F0003F892317B8F4AC8DBD8DD4E02D9FA00D9B
:10080000B11D11247C9111965C91119712964C9117
:10081000129713963C9170835183428333830496DD
:100820002F5FE4CFDF91CF911F910F9108958FEF4C
:1008300093E0089580E294E008958F929F92AF92A2
:10084000BF92CF92DF92EF92FF920F931F93CF93BD
:10085000DC01FB010081118122813381AB014D5FFD
:100860005F4FFA0184E090E068017901C4E0CC0EAA
:10087000D11CE11CF11C4C01A12CB12C8C149D0449
:10088000AE04BF0420F4C181C1930196F4CFFB01F3
:10089000E00FF11F138213965C934E9312974481DD
:1008A00050E060E070E014964D935D936D937C93FF
:1008B00017978581582B14964D935D936D937C9378
:1008C00017978681682B14964D935D936D937C9357
:1008D00017978781782B14964D935D936D937C9336
:1008E0001797408550E060E070E018964D935D9357
:1008F0006D937C931B978185582B18964D935D9330
:100900006D937C931B978285682B18964D935D930E
:100910006D937C931B978385782B18964D935D93ED
:100920006D937C931B97C8010C96CF911F910F91EB
:10093000FF90EF90DF90CF90BF90AF909F908F90FF
:1009400008958DE394E0089588E192E008958EE59E
:1009500094E008958FE794E008958F929F92AF926C
:10096000BF92CF92DF92EF92FF921F93CF93DF93CC
:10097000EC01FB0180818A8381819281A381B48112
:10098000AB014C5F5F4FFA0125E030E06C017D0167
:1009900015E0C10ED11CE11CF11C4901A12CB12CA8
:1009A0008C149D04AE04BF0428F4118111932F5FB1
:1009B0003F4FF3CFFB01E80FF91F14825C834B8399
:1009C0000596DF91CF911F91FF90EF90DF90CF9030
:1009D000BF90AF909F908F90089582E994E0089522
:1009E00083EB94E008954F925F926F927F928F9283
:1009F0009F92AF92BF92CF92DF92EF92FF920F93AE
:100A00001F93CF93DF93DC01FB01808190E013966D
:100A10009C938E9312972181922B13969C938E9385
:100A200012970281138124813581AB014B5F5F4FA7
:100A3000EA0186E090E06801790166E0C60ED11C0B
:100A4000E11CF11C4C01A12CB12C8C149D04AE04B2
:100A5000BF0420F4698169930196F4CFEF01C00FC0
:100A6000D11F1D8215965C934E931497EF01C00F12
:100A7000D11F4E815F8168857985065F1F4F3F01D9
:100A8000600E711E6801012E000CEE08FF08C40EF6
:100A9000D51EE61EF71E43018E1A9F0AA12CB12C0B
:100AA0008C149D04AE04BF0440F4E30129913E017F
:100AB000CE010297EC012883EECF400F511F9F011A
:100AC000240F351FC9010197EC011882C801019755
:100AD0008E0F9F1F17969C938E931697E90188801F
:100AE0009980AA80BB80BA016C5F7F4F4D5F5F4FDA
:100AF000EF01C40FD51F9B016B01072E000CEE0800
:100B0000FF08C80CD91CEA1CFB1C2901612C712CA4
:100B10004C145D046E047F0428F4898189932F5F4F
:100B20003F4FF3CFCB01880D991D8F01080F191F7F
:100B3000980121503109E901188261507109E60FCD
:100B4000F71F1996FC93EE931897F80121814281C3
:100B500050E060E070E0BA0155274427522B208115
:100B6000422B2381722B1A964D935D936D937C9348
:100B70001D970496DF91CF911F910F91FF90EF90F9
:100B8000DF90CF90BF90AF909F908F907F906F90AD
:100B90005F904F9008958CEC94E008958DEE94E072
:100BA0000895FC01DB014C9150E060E070E042836D
:100BB00053836483758311968C911197582B4283CC
:100BC00053836483758312968C911297682B4283AA
:100BD00053836483758313968C911397782B428388
:100BE00053836483758314964C91149750E060E0AE
:100BF00070E0468357836087718715968C911597AF
:100C0000582B468357836087718716968C91169769
:100C1000682B468357836087718717968C91782B52
:100C2000468357836087718788E090E00895DC01F0
:100C3000FB0112968C911297808313968C911397D7
:100C4000818314968C911497828315968C911597B5
:100C5000838316968C911697848317968C91179799
:100C6000858318968C911897868319968C91878323
:100C700088E090E008959F92AF92BF92CF92DF926A
:100C8000EF92FF920F931F93CF93DF936C0184E653
:100C9000E82E82E0F82E00E010E0912CD601599663
:100CA000ED91FC915A97E00FF11FA080CA2DD0E082
:100CB000F701B1907F0161E08B2D0E940513209711
:100CC00009F4B1C0CF3FD10509F4AFC0EB2DF0E07E
:100CD000EC5AFC4FE4918E2F90E0FC013197E23109
:100CE000F10508F09DC08827EE58FF4F8F4F0C94F8
:100CF000431884B5806884BDA7BC9BC084B580625E
:100D000084BDA8BC96C080918000806880938000DC
:100D1000D0938900C09388008CC08091800080624D
:100D200080938000D0938B00C0938A0082C0809112
:100D30008000886080938000D0938D00C0938C00E9
:100D400078C08091B00080688093B000A092B3001A
:100D500070C08091B00080628093B000A092B40017
:100D600068C080919000806880939000D093990033
:100D7000C09398005EC08091900080628093900044
:100D8000D0939B00C0939A0054C0809190008860DB
:100D900080939000D0939D00C0939C004AC08091A6
:100DA000A00080688093A0008091A0008F7B80933A
:100DB000A000D093A900C093A8003BC08091A000E0
:100DC00080628093A000D093AB00C093AA0031C092
:100DD0008091A00088608093A000D093AD00C09364
:100DE000AC0027C080912001806880932001D093BF
:100DF0002901C09328011DC0809120018062809349
:100E00002001D0932B01C0932A0113C080912001AF
:100E1000886080932001D0932D01C0932C0109C0DC
:100E2000C038D10514F460E001C061E08B2D0E9450
:100E30008712D6015996ED91FC915A97E00FF11F58
:100E40008081882311F0992493940F5F1F4F043001
:100E5000110509F023CF692D8DE0DF91CF911F910E
:100E60000F91FF90EF90DF90CF90BF90AF909F9049
:100E70000C948712AF92BF92CF92DF92FF920F93A2
:100E80001F93CF93DF93EC015B01FB0110818A81FB
:100E9000811750F4FCE01F9FB00111248F859889C1
:100EA0000E949A19988B8F871A83F12C04E010E026
:100EB0006E0183E0C80ED11C8A81F501E00FF11F9D
:100EC000F816A8F4BF01C6010E941D04080F191FDF
:100ED000AF85B889ECE0FE9EA00DB11D11248CE019
:100EE000F60101900D928A95E1F7F394E5CF8081A8
:100EF00090E0A0E0B0E0898B9A8BAB8BBC8B21811A
:100F0000922B898B9A8BAB8BBC8B2281A22B898BEA
:100F10009A8BAB8BBC8B2381B22B898B9A8BAB8B3F
:100F2000BC8BC8010496DF91CF911F910F91FF9068
:100F3000DF90CF90BF90AF900895DF92EF92FF9235
:100F40000F931F93CF93DF93EC017B0102960E94D6
:100F50003A078C01F701E80FF91FD0808F898D15B2
:100F600040F46D2D70E0898D9A8D0E949A199A8FA8
:100F7000898FDF8AF8013496EE0DFF1D90E09F0106
:100F80002E193F098F89981748F48191888FA98D70
:100F9000BA8DA90FB11D8C939F5FF1CFC901DF916D
:100FA000CF911F910F91FF90EF90DF9008950F93D5
:100FB0001F93CF93DF938C01EC012696CE010E9404
:100FC0009D07D8019196ED91FC919297CE01DF910A
:100FD000CF911F910F911994DF92EF92FF920F938F
:100FE0001F93CF93DF93EC018B0102960E943A0787
:100FF0007C01080F191FD801DC908F898D1550F4E2
:101000006D2D70E0660F771F8A8D9B8D0E949A1957
:101010009B8F8A8FA7014C5F5F4FDF8A90E0BE01F4
:10102000685E7F4F0E5F1F4F8F899817D0F4F801CD
:10103000228130E0398F288F8381382B398F288F98
:101040004E5F5F4F2A8D8B8DE22FF82FE90FF11D38
:10105000E90FF11DDB012D913C91318320839F5FCE
:10106000E1CFCA01DF91CF911F910F91FF90EF90D7
:10107000DF900895CF92DF92FF920F931F93CF934B
:10108000DF938C01EB0102960E943A076C01C80FB6
:10109000D91FF880F80187898F1560F4F4E0FF9E6E
:1010A000B0011124F801848D958D0E949A19F801E0
:1010B000958F848FC6010496F801F78AF12C980168
:1010C000285E3F4F2496F8014789F41610F5E98110
:1010D0004A8150E060E070E0BA01552744275E2B5A
:1010E000E8814E2BEB817E2BF801408F518F628F70
:1010F000738F0496A48DB58DF4E0FF9EA00DB11DF5
:10110000112444E0F90101900D924A95E1F7F3941E
:10111000D9CFDF91CF911F910F91FF90DF90CF90AA
:1011200008954F925F926F927F928F929F92AF92AB
:10113000BF92DF92EF92FF920F931F93CF93DF93B3
:10114000EC017B01DB011C918A81811750F4B4E032
:101150001B9FB00111248F8198850E949A1998874E
:101160008F831A83970160E084E090E0AE014D5FC9
:101170005F4F2C5F3F4F7A818C010C5F1F4F6717C9
:1011800010F5F9017181828190E0A0E0B0E0DC010E
:1011900099278827972B7081872B7381B72B8B8397
:1011A0009C83AD83BE83C801AF81B885F4E06F9F97
:1011B000A00DB11D112474E0FA0101900D927A95F1
:1011C000E1F76F5FD6CF5701A80EB91ED501DC90AD
:1011D00089858D1550F4B4E0DB9EB00111248E8515
:1011E0009F850E949A199F878E87A801D986C5017D
:1011F000D12C9E01265F3F4F049669858A010C5FC2
:101200001F4FD61638F5DC011196EC911197129606
:101210004C91129750E060E070E0BA0155274427E6
:101220005E2BEC914E2B1396EC917E2B4A875B87BD
:101230006C877D87A801AE85BF85E4E0DE9EA00DAA
:10124000B11D112464E0F90101900D926A95E1F756
:10125000D394D2CFF701E40FF51FD08088898D1584
:1012600050F46D2D70E0660F771F8B899C890E946A
:101270009A199C8B8B8BC801D88A10E0DE0151969D
:101280002889121708F041C0F701E80FF91F808084
:101290009180A280B3809C012C5F3F4F0396F701A1
:1012A000E80FF91FC9012901032E000C6608770811
:1012B000480C591C6A1C7B1CAC0160E070E04415B2
:1012C00055056605770520F4518151930196F4CFB9
:1012D000820E931EF701E80DF91D319710822150FF
:1012E00031092E0D3F1D3A8B298BC4013B892C8976
:1012F000E32FF22FE10FF11DE10FF11D2D913C9134
:101300001197318320831F5FBBCFDF91CF911F9156
:101310000F91FF90EF90DF90BF90AF909F908F90D4
:101320007F906F905F904F9008952F923F924F92D1
:101330005F926F927F928F929F92AF92BF92CF9265
:10134000DF92EF92FF920F931F93CF93DF93CDB76E
:10135000DEB7A6970FB6F894DEBF0FBECDBF8C01E7
:101360000E9485134B015C01980129573B4F3E8B2E
:101370002D8BF90180819181A281B381A501940116
:10138000281B390B4A0B5B0BDA01C901893F9A42D2
:10139000A105B10510F035971082180148E8241A0C
:1013A0004BEF340AD1018D919C91892B79F0F80192
:1013B000E557FB4F80819181A281B3818815990502
:1013C000AA05BB0518F4F10111821082980120587A
:1013D0003B4F3A8B298BA80144585B4F5C8B4B8B5E
:1013E000C8014496988F8F8BD801AE57BB4FBC8FE6
:1013F000AB8FF801E057FB4FFE8FED8F215F3F4F22
:1014000038A32F8F42505109588B4F8786599B4FD5
:101410009A8F898F1996BAA3A9A3A50194012C5E6E
:101420003F4F4F4F5F4F2BA33CA34DA35EA3D8016B
:1014300012968D919C911397DC01ED91FC910284A1
:10144000F385E02D19959C0197FD7AC2E989FA8907
:1014500080819181820F931F91838083D1014D916F
:101460005C9147305105D1F4E98DFA8D80819181ED
:10147000AC014F5F5F4F51834083F801E80FF91FC4
:10148000248BAF85B8898D919C91119701978D938D
:101490009C93892B61F688E090E033C0411551059B
:1014A00041F52F3F310589F481E090E0D1018D9322
:1014B0009C932BA13CA14DA15EA1A9A1BAA12D9302
:1014C0003D934D935C931397B2CF0E948513DC013B
:1014D000CB0188199909AA09BB090697A105B1058D
:1014E00008F4A5CFF801EE57FB4F10828EEF9FEF67
:1014F0004FC241305105A9F42E3F310531F482E04D
:1015000090E0F1019183808392CFD1011D921C92D2
:10151000EB8DFC8D808181118ACFC8010E949113CF
:1015200086CF4230510591F4AF85B8892D933C9315
:10153000E98DFA8D1182108283E090E0D1018D93C4
:101540009C93E989FA893183208371CF4330510517
:1015500071F4322F2227AF85B8898D919C91119714
:10156000280F391F2D933C9384E090E0CACF44307C
:10157000510589F460E071E00E940D188F3F9105DC
:1015800031F485E090E0D1018D939C9350CFF1012F
:10159000118210824CCF4530510571F4AB89BC8962
:1015A0002D933C9386E090E0F10191838083A9899B
:1015B000BA892D933C933BCF46305105A1F4322F8D
:1015C0002227EB89FC8980819181280F391F318383
:1015D000208387E090E0D1018D939C93EF85F8897B
:1015E0008081918156CF4830510509F020CFD1013B
:1015F0001D921C9260E071E00E940D188F3F9105D2
:1016000009F015CFEB89FC8980819181009709F061
:10161000C6C0C8010E94911380E592E09A83898335
:101620001C821B828EE493E09E838D8398878F8338
:101630009A8789871B861C861D861E866801FCEE9C
:10164000CF1AFBEFDF0A78012AEBE21A2BEFF20A3E
:10165000412C22E0522E612C712CD601ED91FC918F
:101660003097A9F1848195819C838B8380819181BE
:101670009E838D8382819381DC01ED91FC910480B6
:10168000F581E02D199598878F83D601ED91FC9116
:1016900082819381DC01ED91FC910680F781E02D40
:1016A00019959A8789874B865C866D867E86D601DA
:1016B000ED91FC9160857185D801ED91FC910190CF
:1016C000F081E02DAE014F5F5F4FC8011995B2E088
:1016D000CB0ED11CEC14FD0409F0BFCF412C92E0DD
:1016E000592E612C712CF701A081B1811097E1F185
:1016F00012968D919C9113979C838B8314968D9158
:101700009C9115979E838D83ED91FC911197048098
:10171000F581E02DCD01199598878F83D7018D91A3
:101720009C91DC01ED91FC910680F781E02D1995EB
:101730009A8789874B865C866D867E86D801ED9177
:10174000FC91C080D180F70180819181DC01ED9115
:10175000FC910280F381E02D1995AE014F5F5F4F40
:10176000BC01C801F6011995F2E0EF0EF11C2E1430
:101770003F0409F0B8CFF801EE57FB4F81E08083BA
:10178000319680829182A282B382AD89BE898D9288
:101790009D92AD92BC9213978FEF9FEFF9C08A3064
:1017A000910509F0A2C080E792E09A8389831B82A9
:1017B0001C821D821E821F82188619861A860E942C
:1017C0008513F801C084D184E284F3849B01AC01C9
:1017D0002C193D094E095F0969017A016F89788DDD
:1017E000CE0101960E94D105C701B60128EE33E073
:1017F00040E050E00E942118CB80DC80ED80FE802C
:10180000C20ED31EE41EF51ECB82DC82ED82FE8268
:101810009B01AC0160E472E48FE090E00E94FD1750
:10182000CF80D884E984FA84DC01CB018C0D9D1D26
:10183000AE1DBF1D8F839887A987BA870E94851325
:10184000CF80D884E984FA8436E3D31A35E6E30AF4
:1018500034ECF30A28EE33E040E050E00E94211817
:1018600029013A019B01AC0160E472E48FE090E051
:101870000E94FD17A7019601261B370B480B590B39
:10188000CA01B901CB80DC80ED80FE8031E0C31A53
:10189000D108E108F108A701960124193509460984
:1018A000570929013A0120E03AEC4AE95BE30E943A
:1018B000211873016201C20ED31EE41EF51ED80169
:1018C0001C96CD92DD92ED92FC921F97F801608BF1
:1018D000718B828B938B0E948513AD89BE896D932A
:1018E0007D938D939C931397A2CD8630910559F4E7
:1018F0006F89788D8D8D9E8D0E94910881E0EF8D8E
:10190000F8A1808394CD8B30910521F4AB8DBC8DF3
:101910001C928DCDFC01E154FE4FEE0FFF1FE00F36
:10192000F11F80819181009709F481CDDC01ED9157
:10193000FC910190F081E02D6F89788D199577CD1C
:10194000F801EE57FB4F8081882301F17801BDE754
:10195000EB1ABBEFFB0AF70180819181A281B38171
:10196000A5019401281B390B4A0B5B0BDA01C90155
:10197000853C9940A105B10548F0C8010E9491132A
:10198000D7018D929D92AD92BC92139780E090E02A
:10199000A6960FB6F894DEBF0FBECDBFDF91CF91F4
:1019A0001F910F91FF90EF90DF90CF90BF90AF907D
:1019B0009F908F907F906F905F904F903F902F906F
:1019C0000895EF92FF920F931F93CF93DF93EC0153
:1019D0008B01AA81BB81FD0101900020E9F73197BD
:1019E0007F01EA1AFB0AA70160E070E0F801419369
:1019F000519361937193CF016A817B81A7010E940A
:101A0000841AF801EE0DFF1D8C8184838D818583FE
:101A10008E8186838F81878388858087898581876A
:101A20008A8582878B858387C7010C96DF91CF914A
:101A30001F910F91FF90EF900895BF92CF92DF9288
:101A4000EF92FF920F931F93CF93DF93EC018B01E3
:101A50008A81DB018C9311961C92119712961C922D
:101A6000129713961C92CB0120E0A4E0B0E00496FC
:101A70003A81FD0134962317E8F4AF81B88534E04C
:101A8000239FA00DB11D11247C9111965C9111979B
:101A900012964C91129713963C91DC017C9311960F
:101AA0005C93119712964C93129713963C93DF0117
:101AB0002F5FDDCFA00FB11F89858C9311961C92EB
:101AC000119712961C9212979F0113961C921397CE
:101AD000FD0190E034968985A9014C5F5F4F98170E
:101AE000B8F4AE85BF8534E0939FA00DB11D1124DD
:101AF0006C9111963C91119712962C911297139616
:101B00008C9160833183228383839A019F5FE2CF2C
:101B10008889F801E20FF31F808311821282CA01C3
:101B20001382B12C2889B21690F52B2D30E0220FAC
:101B3000331FEB89FC89E20FF31FA081B181FD0106
:101B400001900020E9F731976F01CA1ADB0AF8010A
:101B5000E80FF91FA60160E070E0408351836283C3
:101B600073837C0144E0E40EF11C8B899C89FC01A9
:101B7000E20FF31F60817181A601C8018E0D9F1DC8
:101B80000E94841AC6018E0D9F1DB394CBCFDF91A6
:101B9000CF911F910F91FF90EF90DF90CF90BF906A
:101BA0000895CF93DF93DC01FB0112968C9112977D
:101BB000808313968D919C911497EC0109900020DD
:101BC000E9F72197C81BD90BAE0160E070E04183B3
:101BD00052836383748313966D917C911497AE0145
:101BE000CF0105960E94841ACE010596DF91CF9110
:101BF0000895CF92DF92EF92FF920F931F93CF93AE
:101C0000DF937C018B01DC0112968C911297FB0112
:101C1000808313968C91139781831496ED91FC9198
:101C20001597EF0109900020E9F72197CE1BDF0BF4
:101C3000CE01A0E0B0E0FB0182839383A483B5834F
:101C4000D70114966D917C911597AE01C801069647
:101C50000E94841AF701A681B781FD01019000203E
:101C6000E9F731976F01CA1ADB0AF801EC0FFD1F83
:101C7000C601A0E0B0E086839783A087B1872A964B
:101C8000D70116966D917C911797A601C8018C0F0C
:101C90009D1F0E94841ACC0DDD1DF701A085B18522
:101CA000FD0101900020E9F731976F01CA1ADB0AA4
:101CB000F801EC0FFD1FC601A0E0B0E08083918326
:101CC000A283B3832496D70118966D917C911997BE
:101CD000A601C8018C0F9D1F0E94841AC6018C0F9B
:101CE0009D1FF7016285438534852585F801E80F3E
:101CF000F91F60834183328323830496DF91CF9160
:101D00001F910F91FF90EF90DF90CF900895FC010D
:101D1000848DDF01A80FB11DA35ABF4F2C91848D74
:101D200090E001968F739927848FA689B7892C93A9
:101D3000A089B1898C91837080648C93938D848DFC
:101D4000981306C00288F389E02D80818F7D8083FF
:101D50000895CF93DF93FC01DC01AF5ABF4F9C91F4
:101D60009431E1F0EF01C05BDF4F8881292F30E033
:101D7000280F311D2431310510F02451310933274A
:101D8000220F331F220F331FE20FF31F40835183B3
:101D9000628373839F5F9C9381E001C080E0DF9149
:101DA000CF910895CF93DF9300D01F92CDB7DEB7C8
:101DB000BE016F5F7F4F87EF9BE00E94FE020E9493
:101DC0006013AB01BC0187EF9BE00E94A90E0F904E
:101DD0000F900F900F90DF91CF910895CF93DF93E5
:101DE00000D01F92CDB7DEB7BE016F5F7F4F85EA8F
:101DF0009BE00E94FE020E946013AB01BC0185EAD9
:101E00009BE00E94A90E0F900F900F900F90DF9112
:101E1000CF910895CF93DF9300D01F92CDB7DEB757
:101E2000BE016F5F7F4F83E59BE00E94FE020E9430
:101E30006013AB01BC0183E59BE00E94A90E0F90EB
:101E40000F900F900F90DF91CF910895CF93DF9374
:101E500000D01F92CDB7DEB7BE016F5F7F4F81E02C
:101E60009BE00E94FE020E946013AB01BC0181E076
:101E70009BE00E94A90E0F900F900F900F90DF91A2
:101E8000CF910895FC01EF5AFF4F2081621788F42B
:101E90003197208170E0620F711D6431710510F07F
:101EA000645171097727660F771F660F771F860FBA
:101EB000971F08951F920F920FB60F9211240BB621
:101EC0000F92AF92BF92CF92DF92EF92FF921F9349
:101ED0002F933F934F935F936F937F938F939F9332
:101EE000AF93BF93CF93DF93EF93FF930E94601361
:101EF0006B017C01C1E0DBE089E4A82E8CE0B82E08
:101F000063E1CE010E94420FFC0180819181A28198
:101F1000B381A7019601281B390B4A0B5B0BDA0131
:101F2000C9018132914AA740B10508F5CE5ADF4F69
:101F3000AC16BD0629F7FF91EF91DF91CF91BF91CC
:101F4000AF919F918F917F916F915F914F913F9151
:101F50002F911F91FF90EF90DF90CF90BF90AF90A7
:101F60000F900BBE0F900FBE0F901F90189510E0B2
:101F7000612FCE010E94420FFC0110821182128259
:101F800013821F5F1431A1F7D1CFAB01FC01A681F1
:101F9000B78164817581ED91FC9111970190F08179
:101FA000E02DCD0119940895CF92DF92EF92FF9228
:101FB0000F931F93CF93DF936C017A018B01C0E0E5
:101FC000D0E0CE15DF0581F0D8016D918D01D601ED
:101FD000ED91FC910190F081E02DC6011995892BBE
:101FE00011F02196EECF7E01C701DF91CF911F91B5
:101FF0000F91FF90EF90DF90CF900895089580E0CB
:1020000090E00895FC01538D448D252F30E0842FFE
:1020100090E0821B930B541710F0CF960895019710
:102020000895FC01918D828D981761F0828DDF01FA
:10203000A80FB11D5D968C91928D9F5F9F73928FBB
:1020400090E008958FEF9FEF0895FC01918D828DB0
:10205000981731F0828DE80FF11D858D90E008957D
:102060008FEF9FEF08950E947F1A86E295E00E940D
:10207000010221E0892B09F420E0822F0895EF92DC
:10208000FF920F931F93CF93DF93EC0181E0888F32
:102090009B8D8C8D981305C0E889F989808185FD19
:1020A00026C0F62E0B8D10E00F5F1F4F0F73112708
:1020B000E02E8C8DE8120CC00FB607FCFACFE88931
:1020C000F989808185FFF5CFCE010E94870EF1CF7F
:1020D0008B8DFE01E80FF11DE35AFF4FF0829FB791
:1020E000F8940B8FEA89FB89808180620AC09FB7D0
:1020F000F894EE89FF896083E889F989808183708B
:10210000806480839FBF81E090E0DF91CF911F9139
:102110000F91FF90EF900895CF93DF93EC01888D9E
:102120008823C9F0EA89FB89808185FD05C0A889DB
:10213000B9898C9186FD0FC00FB607FCF5CF808161
:1021400085FFF2CFA889B9898C9185FFEDCFCE01AB
:102150000E94870EE7CFDF91CF9108951F920F92D3
:102160000FB60F9211240BB60F922F933F934F93FC
:102170005F936F937F938F939F93AF93BF93EF93EF
:10218000FF93E0910E02F0910F021995FF91EF91EC
:10219000BF91AF919F918F917F916F915F914F917F
:1021A0003F912F910F900BBE0F900FBE0F901F907D
:1021B00018951F920F920FB60F9211240BB60F9223
:1021C0002F933F934F935F936F937F938F939F933F
:1021D000AF93BF93EF93FF93E0910C02F0910D0248
:1021E0001995FF91EF91BF91AF919F918F917F9141
:1021F0006F915F914F913F912F910F900BBE0F9078
:102200000FBE0F901F9018951F920F920FB60F924E
:1022100011240BB60F922F933F934F935F936F93BD
:102220007F938F939F93AF93BF93EF93FF93E0912F
:102230000202F09103021995FF91EF91BF91AF91C6
:102240009F918F917F916F915F914F913F912F91CE
:102250000F900BBE0F900FBE0F901F9018951F92FE
:102260000F920FB60F9211240BB60F922F933F933C
:102270004F935F936F937F938F939F93AF93BF938E
:10228000EF93FF93E0910002F09101021995FF9105
:10229000EF91BF91AF919F918F917F916F915F91DE
:1022A0004F913F912F910F900BBE0F900FBE0F904B
:1022B0001F9018951F920F920FB60F9211240BB614
:1022C0000F922F933F934F935F936F937F938F93CF
:1022D0009F93AF93BF93EF93FF93E0910A02F09126
:1022E0000B021995FF91EF91BF91AF919F918F9143
:1022F0007F916F915F914F913F912F910F900BBE06
:102300000F900FBE0F901F9018951F920F920FB64F
:102310000F9211240BB60F922F933F934F935F931D
:102320006F937F938F939F93AF93BF93EF93FF939D
:10233000E0910802F09109021995FF91EF91BF9188
:10234000AF919F918F917F916F915F914F913F914D
:102350002F910F900BBE0F900FBE0F901F901895EE
:102360001F920F920FB60F9211240BB60F922F935C
:102370003F934F935F936F937F938F939F93AF930D
:10238000BF93EF93FF93E0910602F0910702199536
:10239000FF91EF91BF91AF919F918F917F916F913D
:1023A0005F914F913F912F910F900BBE0F900FBEF9
:1023B0000F901F9018951F920F920FB60F92112435
:1023C0000BB60F922F933F934F935F936F937F932F
:1023D0008F939F93AF93BF93EF93FF93E09104028A
:1023E000F09105021995FF91EF91BF91AF919F91E7
:1023F0008F917F916F915F914F913F912F910F90AE
:102400000BBE0F900FBE0F901F9018951F920F924A
:102410000FB60F9211240BB60F922F933F934F9349
:102420005F936F937F938F939F93AF93BF93EF933C
:10243000FF9386E295E00E94870EFF91EF91BF9196
:10244000AF919F918F917F916F915F914F913F914C
:102450002F910F900BBE0F900FBE0F901F901895ED
:102460001F920F920FB60F9211240BB60F922F935B
:102470008F939F93EF93FF93E0913605F09137058B
:102480008081E0913C05F0913D0582FD12C0908174
:1024900080913F058F5F8F7320914005821751F027
:1024A000E0913F05F0E0EA5DFA4F958F80933F059C
:1024B00001C08081FF91EF919F918F912F910F909B
:1024C0000BBE0F900FBE0F901F901895E0E7FAE03B
:1024D00020E030E041915191452B91F4F901EE0F4C
:1024E000FF1FE059F54F9183808323583F4FFC0134
:1024F000358324832CE536E03783268381E00895F5
:102500002F5F3F4F2931310529F780E00895362F9D
:1025100090E0FC01EC5AFC4F4491FC01E25FFC4F5F
:102520002491FC01E853FD4F9491992309F46CC068
:10253000442309F455C050E0FA013197E231F10526
:1025400008F04EC08827EC57FF4F8F4F0C9443186C
:10255000809180008F7707C0809180008F7D03C0BD
:1025600080918000877F809380003AC084B58F7708
:1025700002C084B58F7D84BD33C08091B0008F7759
:1025800003C08091B0008F7D8093B00029C08091FE
:1025900090008F7707C0809190008F7D03C080915D
:1025A0009000877F809390001BC08091A0008F7760
:1025B00007C08091A0008F7D03C08091A000877F1D
:1025C0008093A0000DC0809120018F7707C080917B
:1025D00020018F7D03C080912001877F809320019F
:1025E000E92FF0E0EE0FFF1FE255FD4FA591B491EA
:1025F0009FB7F894311104C08C912095282302C014
:10260000EC912E2B2C939FBF0895CF93DF9390E0F6
:10261000FC01E25FFC4F2491FC01E853FD4F8491E3
:10262000882361F190E0880F991FFC01EC56FD4F63
:10263000C591D491FC01E255FD4FA591B491611172
:1026400009C09FB7F8948881209582238883EC91F4
:102650002E230BC0623061F49FB7F8948881322F2B
:10266000309583238883EC912E2B2C939FBF06C03B
:102670008FB7F894E8812E2B28838FBFDF91CF91FD
:102680000895863308F0865390917B00282F287098
:10269000977F922B90937B008770806480937C005F
:1026A00080917A00806480937A0080917A0086FD20
:1026B000FCCF809178002091790090E0922B0895D2
:1026C0003FB7F89480914E0C90914F0CA091500C14
:1026D000B091510C26B5A89B05C02F3F19F001966B
:1026E000A11DB11D3FBFBA2FA92F982F8827820F98
:1026F000911DA11DB11DBC01CD0142E0660F771FE8
:10270000881F991F4A95D1F708952FB7F8946091C3
:102710004A0C70914B0C80914C0C90914D0C2FBF3A
:1027200008950F931F93CF93DF93CDB7DEB72A970A
:102730000FB6F894DEBF0FBECDBF8C0180E792E0EC
:102740009A8389831B821C821D821E821F821886A7
:1027500019861A86D801ED91FC910190F081E02D47
:10276000AE014F5F5F4F6AE070E0C80119950E94AB
:102770008513F80160877187828793872A960FB641
:10278000F894DEBF0FBECDBFDF91CF911F910F91A7
:1027900008951F920F920FB60F9211242F933F931B
:1027A0008F939F93AF93BF9380914A0C90914B0C62
:1027B000A0914C0CB0914D0C3091490C23E0230FAB
:1027C0002D3720F40196A11DB11D05C026E8230F69
:1027D0000296A11DB11D2093490C80934A0C909341
:1027E0004B0CA0934C0CB0934D0C80914E0C9091DF
:1027F0004F0CA091500CB091510C0196A11DB11D30
:1028000080934E0C90934F0CA093500CB093510CAE
:10281000BF91AF919F918F913F912F910F900FBEDC
:102820000F901F901895FC0184E492E091838083BF
:10283000128288E392E0948383838EE493E096830C
:102840008583178210861186128613861486158654
:102850001686108A1786118A128A138A148A089596
:10286000789484B5826084BD84B5816084BD85B56B
:10287000826085BD85B5816085BD80916E00816077
:1028800080936E001092810080918100826080931D
:10289000810080918100816080938100809180001F
:1028A0008160809380008091B10084608093B1004A
:1028B0008091B00081608093B0008091910082602F
:1028C000809391008091910081608093910080912C
:1028D00090008160809390008091A100826080933D
:1028E000A1008091A10081608093A1008091A0004F
:1028F00081608093A00080912101826080932101FA
:10290000809121018160809321018091200181606B
:102910008093200180917A00846080937A00809176
:102920007A00826080937A0080917A00816080933F
:102930007A0080917A00806880937A001092C100BA
:10294000F89461E08DE00E94051360E08DE00E9444
:10295000871260E082E00E94051360E083E00E943D
:10296000051360E082E10E94051360E083E10E94AC
:102970000513A9E42A2EACE03A2EC1E0DBE004E125
:1029800010E00E946013AB01BC01CE010E94A90EB1
:1029900001501109B1F7CE5ADF4F2CE0C934D207EC
:1029A00071F7C4E6D2E0199161E0812F0E9405130E
:1029B00060E0812F0E94871282E0C836D80799F71D
:1029C0001092B0001092B1001092B20083E8809390
:1029D000B3008091B00082608093B0008091B1001C
:1029E00085608093B1008091700082608093700058
:1029F00086E29FE0909301028093000280916A003A
:102A0000836080936A00EC9A8AE09FE090930302CF
:102A10008093020280916A008C6080936A00ED9A34
:102A20008EEE9EE090930B0280930A0280916900E3
:102A3000806C80936900EB9A82ED9EE0909309028E
:102A40008093080280916900806380936900EA9A0C
:102A5000C0906006D0906106E0906206F090630638
:102A6000C0915E06D0915F0660E079E08DE390E072
:102A7000A70196010E942118DA01C9010197A10955
:102A8000B109B695A795979587959C01E889F9892D
:102A900082E08083C11491EED906E104F10421F0B3
:102AA0002115E0E13E07A8F0E889F989108260E885
:102AB00074E88EE190E0A70196010E942118DA01E6
:102AC000C9010197A109B109B695A7959795879571
:102AD0009C01EC85FD853083EE85FF852083188E73
:102AE000EC89FD8986E08083EA89FB8980818061A9
:102AF0008083EA89FB89808188608083EA89FB89F9
:102B0000808180688083EA89FB8980818F7D8083D2
:102B10001092D50A1092D40A1092D70A1092D60AAF
:102B20001092DB0A1092DA0A1092D90A1092D80A8F
:102B3000C4E0C093550680E190E00E94791890931C
:102B40005B0680935A06C093390688E090E00E94A5
:102B5000791890933D0680933C0682E080931D0691
:102B600084E090E00E9479189093210680932006DB
:102B70008CEF95E00E94661282EF95E00E9466124B
:102B800088EE95E00E946612E2EAFAE080E090E0CA
:102B900021913191232B81F4FC01EE0FFF1FEE55A3
:102BA000F54F23EC35E0318320838C599F4F909370
:102BB000C6058093C50504C001968931910541F78A
:102BC000789460EC862E6AEE962E61E2A62EBB24E7
:102BD000B39480911002909111029C012F5F3F4F9E
:102BE0003093110220931002181619060CF0ACC095
:102BF00000915A0610915B067801C1E0DBE063E1C9
:102C0000CE010E94420FFC0140805180628073809F
:102C100060E0CE010E94420FFC0180819181A2817F
:102C2000B381481659066A067B0631F4F701108213
:102C30001182128213820FC0A3019201281B390B4B
:102C40004A0B5B0BC501B4010E942118F8012083D7
:102C5000318342835383CE5ADF4FF4E0EF0EF11CF1
:102C60000C5F1F4F2C163D0651F658E6E52E52E03C
:102C7000F52E00E010E044E0742EC0E0D0E0F70153
:102C800080810E944113C80FD91F7A947110F7CF29
:102C9000E0913C06F0913D06E00FF11FD7FD239631
:102CA000D595C795D595C795D183C0830E5F1F4F26
:102CB000FFEFEF1AFF0A08301105E9F614E0C0E053
:102CC000D0E084E40E944113C80FD91F1150C9F706
:102CD000E0912006F0912106CE01D7FD039695954F
:102CE0008795959587959183808314E0C0E0D0E027
:102CF00085E40E944113C80FD91F1150C9F7E09114
:102D00002006F0912106CE01D7FD03969595879573
:102D100095958795938382836EE376E08CEF95E0BB
:102D20000E94C50F62E276E082EF95E00E94C50F37
:102D300066E076E088EE95E00E94C50F81E090E0C5
:102D400090931102809310028CE596E00E94950901
:102D50000E9460136B017C0182E3482E512C612C90
:102D6000712C0E946013DC01CB018C199D09AE0906
:102D7000BF09883E9340A105B10598F321E0421AAE
:102D800051086108710888EEC80E83E0D81EE11C66
:102D9000F11C411451046104710419F70E940D02E1
:102DA00018CFCF93DF93109229051092280588EE53
:102DB00093E0A0E0B0E080932A0590932B05A093C8
:102DC0002C05B0932D058CE792E090932705809316
:102DD000260585EC90E0909333058093320584ECD2
:102DE00090E0909335058093340580EC90E09093CB
:102DF00037058093360581EC90E0909339058093F8
:102E0000380582EC90E090933B0580933A0586EC80
:102E100090E090933D0580933C0510923F05109201
:102E2000400510924105109242051092510B1092EC
:102E3000520B1092A30B1092A40B1092F50B109250
:102E4000F60B1092470C1092480C8AEC92E090938B
:102E50005D0680935C0686E295E090935F06809322
:102E60005E0680E091EEA0E0B0E080936006909373
:102E70006106A0936206B09363061092DE0A82EBAD
:102E800092E09093ED0A8093EC0A1092EE0A109271
:102E9000F40A1092F30A1092F50A1092FB0A1092AB
:102EA000FA0A1092FC0A1092000B1092FF0AE2EA52
:102EB000FAE0A0E7BAE01D921D92EA17FB07D9F7E6
:102EC00084ED9AE0119211928E179F07D9F7A0E72F
:102ED000B6E0E0E7F8E01D92EA17FB07E1F7119290
:102EE0008AE0E037F807D9F786EA92E090933F0648
:102EF00080933E0680E496E00E94131410925506DB
:102F000010925B0610925A06CAE9D2E0D0932306CB
:102F1000C093220684E296E00E94131410923906B0
:102F200010923D0610923C06D0930706C093060609
:102F300088E096E00E94131410921D06109221065C
:102F4000109220068BEF94E09093FD058093FC0592
:102F50008EE396E09093FF058093FE0510920506A0
:102F60001092040687E095E09093F3058093F205B4
:102F700082E296E09093F5058093F4051092FB05AC
:102F80001092FA0583E195E09093E9058093E805B6
:102F900086E096E09093EB058093EA051092F105A8
:102FA0001092F00584ED92E09093C4058093C305E0
:102FB0008EE892E09093CA058093C9058BEC95E06A
:102FC0000E9413141092E0051092E3051092E2059E
:102FD0008BE396E09093E5058093E40581E090E033
:102FE0009093E7058093E6058FE195E09093C805FF
:102FF0008093C705DF91CF910895DB018F939F9355
:103000000E944B18BF91AF91A29F800D911DA39F6D
:10301000900DB29F900D1124089597FB072E16F482
:10302000009407D077FD09D00E94561807FC05D000
:103030003EF4909581959F4F0895709561957F4FCF
:103040000895A1E21A2EAA1BBB1BFD010DC0AA1FE9
:10305000BB1FEE1FFF1FA217B307E407F50720F001
:10306000A21BB30BE40BF50B661F771F881F991F7C
:103070001A9469F760957095809590959B01AC01C5
:10308000BD01CF010895EE0FFF1F881F8BBF079072
:10309000F691E02D19940E946A18A59F900DB49F97
:1030A000900DA49F800D911D11240895AA1BBB1B98
:1030B00051E107C0AA1FBB1FA617B70710F0A61B38
:1030C000B70B881F991F5A95A9F780959095BC0159
:1030D000CD010895A29FB001B39FC001A39F700DC1
:1030E000811D1124911DB29F700D811D1124911D10
:1030F00008950F931F93CF93DF938230910510F4BF
:1031000082E090E0E091540CF091550C20E030E02A
:10311000A0E0B0E0309719F1408151810281138124
:1031200048175907C8F08417950769F4109731F0CC
:1031300012960C93129713961C9327C00093540C6D
:103140001093550C22C02115310519F04217530771
:1031500018F49A01BD01EF01DF01F801DBCF211561
:103160003105F9F0281B390B2430310580F48A81B0
:103170009B816115710521F0FB019383828304C05B
:103180009093550C8093540CFE01329644C0FE017E
:10319000E20FF31F819391932250310939832883E1
:1031A0003AC02091520C3091530C232B41F42091C2
:1031B0001402309115023093530C2093520C20913D
:1031C0001202309113022115310541F42DB73EB79B
:1031D0004091160250911702241B350BE091520CBE
:1031E000F091530CE217F307A0F42E1B3F0B2817A6
:1031F000390778F0AC014E5F5F4F2417350748F070
:103200004E0F5F1F5093530C4093520C8193919338
:1032100002C0E0E0F0E0CF01DF91CF911F910F916C
:103220000895CF93DF93009709F481C0FC01329792
:1032300013821282A091540CB091550C109781F416
:1032400020813181820F931F2091520C3091530CB9
:103250002817390751F5F093530CE093520C67C0CF
:10326000ED0120E030E0CE17DF0740F44A815B81BA
:103270009E0141155105F1F0EA01F5CFD383C283D8
:1032800040815181840F951FC817D90759F488814F
:103290009981840F951F0296918380838A819B81F7
:1032A000938382832115310529F4F093550CE09323
:1032B000540C3DC0E901FB83EA8349915991C40F45
:1032C000D51FEC17FD0761F480819181840F951F54
:1032D0000296E90199838883828193819B838A8303
:1032E000E0E0F0E012968D919C911397009719F011
:1032F000FD01DC01F7CF8D919C9111979D012E5F0F
:103300003F4F820F931F2091520C3091530C28177E
:10331000390769F4309729F41092550C1092540C27
:1033200002C013821282B093530CA093520CDF910F
:10333000CF9108956F927F928F929F92AF92BF929A
:10334000CF92DF92EF92FF920F931F93CF93DF9371
:10335000009789F4CB01DF91CF911F910F91FF90DE
:10336000EF90DF90CF90BF90AF909F908F907F9025
:103370006F900C947918FC01E60FF71F9C01225006
:103380003109E217F30708F4A9C0EC01D9010D9146
:103390001C91119706171707B0F00530110508F4B6
:1033A0009BC0C80104978617970708F495C0025080
:1033B0001109061B170B019311936D937C93CF0199
:1033C0000E94111989C05B01A01AB10A4C01800E3C
:1033D000911EA091540CB091550C612C712CE12CD4
:1033E000F12C109709F446C08D919C911197A81566
:1033F000B905B1F56C0142E0C40ED11CCA14DB045E
:1034000078F14C018A189B08640142E0C40ED11C7B
:103410001296BC9012971396AC91B5E0CB16D104DE
:1034200040F0B282A38391828082D9016D937C9314
:1034300009C00E5F1F4F800F911FF9019183808398
:10344000EB2DFA2FE114F10431F0D7011396FC9320
:10345000EE93129741C0F093550CE093540C3CC08E
:103460006816790608F43C017D0112960D90BC9116
:10347000A02DB7CF8091520C9091530C88169906CD
:10348000E1F466167706C8F4809112029091130257
:10349000009741F48DB79EB74091160250911702E4
:1034A000841B950BE817F907C8F4F093530CE093CD
:1034B000520CF901718360830FC0CB010E9479180F
:1034C0007C01009759F0A801BE010E94841ACE0128
:1034D0000E941119C70104C0CE0102C080E090E033
:1034E000DF91CF911F910F91FF90EF90DF90CF90E0
:1034F000BF90AF909F908F907F906F90089581E0E4
:1035000090E0F8940C948D1AFB01DC0102C001904C
:0E3510000D9241505040D8F70895F894FFCF27
:10351E00D30FD30FD30FD30FD30FD30FD30FD30F8D
:10352E0001000000560C2000726F737365726961A2
:10353E006C5F6D7367732F5265717565737450612F
:10354E0072616D0000000000E10C1D041A041704E6
:10355E00000000003F033A073C033903000000005F
:10356E00F90DF304F004ED0400000000D10DAD04DC
:10357E00AA04A7040607080C3C3D3E3F00000000CD
:10358E001706D105CE05CB05000000003F10D40F65
:10359E0002108C1001021110251000000000830390
:1035AE009D074E024B0200000000AD03EC073003F6
:1035BE002D0300000000E1033A0836033303000038
:1035CE0000001D0D9108A404A1040000000033109A
:1035DE0033103310331000000000550295094602D7
:1035EE0000000000D70751024E024B02383233372B
:1035FE00336631363132333831626236656534378F
:10360E0033623563643666356438396300737464C7
:10361E005F6D7367732F55496E74384D756C746991
:10362E004172726179004D657373616765206672D0
:10363E006F6D206465766963652064726F70706566
:10364E00643A206D657373616765206C617267659E
:10365E0072207468616E206275666665722E003522
:10366E003266323634663163393733633462373318
:10367E003739306433383463366362343438340067
:10368E007374645F6D7367732F55496E7431364D65
:10369E00756C7469417272617900316439396637BB
:1036AE00396638623332356234346665653930389E
:1036BE0030353365396339343562007374645F6D48
:1036CE007367732F496E7433324D756C7469417222
:1036DE007261790030666564326131316331336510
:1036EE00313163353537316234653261393935619F
:1036FE0039316133007374645F6D7367732F4D7569
:10370E006C746941727261794C61796F75740034B1
:10371E0063643063383361383638336465616534D9
:10372E0030656364616336306535336266613800D7
:10373E007374645F6D7367732F4D756C746941722A
:10374E0072617944696D656E73696F6E00396630AA
:10375E0065393862646136353938313938366464E2
:10376E006635336166613761343065343900313125
:10377E006162643733316332353933333236316314
:10378E006436313833626431326436323935007220
:10379E006F7373657269616C5F6D7367732F4C6FB6
:1037AE0067003061643531663838666334343839D1
:1037BE003266386331303638343037373634363057
:1037CE00303500726F7373657269616C5F6D73670C
:1037DE00732F546F706963496E666F00636437317F
:1037EE00363663373463353532633331316662636F
:1037FE0063326665356137626332383900737464DB
:10380E005F6D7367732F54696D6500776865656CBE
:10381E005F737065656400776865656C5F666F726F
:10382E00636500776865656C5F616E676C650062E5
:06383E0072616B650000E1
:00000001FF
