:100000000C945C000C9479000C9479000C947900A9
:100010000C9479000C9479000C9479000C9479007C
:100020000C9479000C9479000C9479000C9479006C
:100030000C9479000C9479000C9479000C9479005C
:100040000C94ED000C9479000C9479000C947900D8
:100050000C9479000C9479000C9479000C9479003C
:100060000C9479000C947900000000002400270013
:100070002A0000000000250028002B0004040404CE
:100080000404040402020202020203030303030342
:10009000010204081020408001020408102001021F
:1000A00004081020000000080002010000030407FB
:1000B000000000000000000011241FBECFEFD8E0B8
:1000C000DEBFCDBF11E0A0E0B1E0EAEEF3E002C098
:1000D00005900D92A031B107D9F721E0A0E1B1E080
:1000E00001C01D92A932B207E1F70E9437010C94BA
:1000F000F3010C94000090E0FC01EC55FF4F2491BB
:10010000FC01E057FF4F3491FC01E458FF4FE491AC
:10011000EE2309F43CC0222339F1233091F038F466
:100120002130A9F0223001F584B58F7D12C027302F
:1001300091F02830A1F02430B9F4809180008F7DB7
:1001400003C0809180008F77809380000DC084B5BC
:100150008F7784BD09C08091B0008F7703C08091F4
:10016000B0008F7D8093B000F0E0EE0FFF1FEE58DF
:10017000FF4FA591B4919FB7F894611104C08C9181
:100180003095382302C0EC913E2B3C939FBF0895DD
:100190003FB7F8948091250190912601A091270105
:1001A000B091280126B5A89B05C02F3F19F00196F4
:1001B000A11DB11D3FBFBA2FA92F982F8827820FED
:1001C000911DA11DB11DBC01CD0142E0660F771F3D
:1001D000881F991F4A95D1F708951F920F920FB665
:1001E0000F9211242F933F938F939F93AF93BF93BD
:1001F0008091210190912201A0912301B0912401CD
:100200003091200123E0230F2D3720F40196A11D0A
:10021000B11D05C026E8230F0296A11DB11D209334
:1002200020018093210190932201A0932301B09398
:1002300024018091250190912601A0912701B09180
:1002400028010196A11DB11D8093250190932601DF
:10025000A0932701B0932801BF91AF919F918F91F7
:100260003F912F910F900FBE0F901F90189578948B
:1002700084B5826084BD84B5816084BD85B58260AB
:1002800085BD85B5816085BD80916E00816080935C
:100290006E001092810080918100826080938100C5
:1002A00080918100816080938100809180008160D5
:1002B000809380008091B10084608093B100809130
:1002C000B00081608093B00080917A008460809358
:1002D0007A0080917A00826080937A0080917A001F
:1002E000816080937A0080917A00806880937A00A0
:1002F0001092C10008E011E0C0E0D1E0899199912D
:100300009C013327F901E057FF4F4491F901E4586C
:10031000FF4F2491222399F030E0220F331FF9017F
:10032000E859FF4FA591B491F901EE58FF4F25917F
:1003300034912FB7F894EC91E42BEC932FBF60E04D
:100340000E947B000C171D07C9F6EE24E394F12CE4
:1003500030E0C32E30E0D32EC8E1D1E088E0882E13
:1003600081E0982E00E111E090E0A92E91E0B92EF5
:1003700088819981BC016F5F7F4F69937993F40104
:10038000219131914F018217930764F0F801808128
:1003900091819701281B390B31832083F5018081DE
:1003A0000E947B000E5F1F4FF2E0AF0EB11C21E0F8
:1003B000C032D207E9F60E94C8004B015C010E94DE
:1003C000C800DC01CB0188199909AA09BB09883E3C
:1003D0009340A105B10598F3C114D10409F4BCCF31
:0A03E0000E940000B9CFF894FFCF8F
:1003EA000400070008000C00640032002100190014
:00000001FF
