:100000000C9472000C949A000C949A000C949A0030
:100010000C949A000C949A000C949A000C949A00F8
:100020000C949A000C949A000C949A000C949A00E8
:100030000C949A000C949A000C9454090C94050AA0
:100040000C949A000C949A000C949A000C949A00C8
:100050000C949A000C949A000C949A000C949A00B8
:100060000C949A000C949A000C949A000C949A00A8
:100070000C949A000C949A000C949A000C949A0098
:100080000C949A000C949A000C949A000C949A0088
:100090000C9481080C940B090C94E5080C949A00BC
:1000A0002E2E2E646F6E6500496E697469616C69ED
:1000B0007A6174696F6E206572726F722E2053447C
:1000C00041206F722053434C20617265206C6F7722
:1000D00000496E7469616C697A696E67202E2E2EF4
:1000E0000000C50A11241FBECFEFCDBFDFE3DEBF86
:1000F00018E2A0E0B8E2E0ECFDE102C005900D924C
:10010000A430B107D9F729E2A4E0B8E201C01D92FA
:10011000A23FB207E1F710E0C2E7D0E004C02197A8
:10012000FE010E94B40CC137D107C9F70E94150B1C
:100130000C94930E0C940000FC0154894589252FE2
:1001400030E0842F90E0821B930B541710F0CF9671
:10015000089501970895FC0192898389981761F0A9
:10016000A389AE0FBF2FB11D59968C9193899F5FC4
:100170009F73938B90E008958FEF9FEF0895FC019C
:1001800092898389981731F08389E80FF11D818D59
:1001900090E008958FEF9FEF0895FC0192892389E5
:1001A000892F90E0805C9F4F821B91098F73992764
:1001B0000895CF93DF93EC01E881F9810680F78100
:1001C000E02D0995EC85FD8586818F738683EC850E
:1001D000FD8585818F7585838B898A8B198ADF914F
:1001E000CF910895CF93DF93FC0194898589C485CD
:1001F000D585981306C08D818F7D8D83DF91CF913A
:100200000895A589AE0FBF2FB11DA75ABF4F2C91DE
:10021000858990E001968F739927858B80E48C8384
:10022000A485B58512962C93948985899813E6CF79
:10023000A485B58515968C9115978F7D15968C9311
:1002400087898823D9F2808D80931301178AD6CFAE
:10025000DC011C96ED91FC910FB607FE03C02581D1
:1002600025FD04C0248125FD0C94F2000895EF9231
:10027000FF920F931F93CF93DF93EC0181E0898B63
:100280009C898D8998131CC0AC85BD8514968C9172
:10029000149785FF15C012966C93AC85BD8580E4DC
:1002A00014968C93EC85FD8585818F7D858381E017
:1002B00090E0DF91CF911F910F91FF90EF90089503
:1002C0008091110180FF08C080911301888F8E8971
:1002D0008093130181E08F8BF62E0C8910E00F5F65
:1002E0001F4F0F731127E02E8D898E1104C0CE0190
:1002F0000E942801F9CFEC89EC0FFD2FF11DE75A80
:10030000FF4FF0820C8BEC85FD8585818062CECF1E
:10031000CF93DF93FC0121892223C9F0EC01809166
:10032000110180FF08C080911301808F868980931E
:10033000130181E0878BEC85FD85858185FD03C0F8
:10034000848186FD04C0CE010E942801F4CFDF9194
:10035000CF910895CF93DF9390E0FC01E858F24AE3
:1003600020812F3F71F0FC01E25AF24AA08130E275
:10037000A39FD0011124BC5F6130710529F411964F
:100380002C93DF91CF9108958C5B924AEC01E88128
:10039000EF3F89F0CD014096E80FF92FF11D9FB78F
:1003A000F89412962C9380816230710539F488603C
:1003B00080839FBFE6CFF0E0E0E0F1CF877FF8CF0A
:1003C000282F30E0F901E65DF24AE081EE2309F1E1
:1003D000E13021F0F0F0E63098F008954091010A04
:1003E0002C5B324AF90120812C5F81E090E001C052
:1003F000880F2A95EAF7809584238093010A08954F
:1004000080E1E89FF0011124E05AF54F81818F7E51
:1004100081830895FF920F931F93CF93DF93082F4B
:1004200010E0F801E858F24AF0809FEFF916A1F0C9
:10043000EB018B3210F40E94E001F801E25AF24A1B
:10044000E08180E2E89FF0011124FC5F80818F2130
:1004500059F0CD2B39F4F682DF91CF911F910F9196
:10046000FF900895F582F8CFD801AC5BB24A8C9129
:10047000309771F08F3F61F07096E80FF11D9FB7D4
:10048000F8948081CD2B39F4877F80839FBFE4CFA0
:10049000F0E0E0E0F4CF8860F8CF0F931F93CF93A4
:1004A000082F10E0F801E858F24AC081CF3FB9F0B8
:1004B0008B3210F40E94E001F801E25AF24AE08126
:1004C00080E2E89FF0011124FC5F8085C82381E071
:1004D00090E009F480E0CF911F910F91089580E0A2
:1004E00090E0F9CF8B3210F40C94AA010895CF92CA
:1004F000DF92EF92FF920F931F93CF93DF93EC0164
:100500006A017B01022F8989882339F0E881F9810A
:100510000288F389E02DCE01099598898091E20542
:10052000892B8093E2051FB7F89460E070E281EABE
:1005300097E0A70196010E94600C69017A018FEF94
:10054000C81AD80AE80AF80AF694E794D794C79428
:10055000EC85FD8586818D7F8683EC85FD85868192
:100560008683198AA09123110A2E000CBB0BA701C8
:1005700096010E94AC0C20E034E040E050E00E9484
:10058000820CEC85FD85C20ED31EE41EF51EC086CE
:10059000D186EC85FD850783EC85FD858681806CA1
:1005A0008683EC85FD858581806885838E8562E004
:1005B00070E00E9472028F858B3220F461E070E05F
:1005C0000E940A028F8561E070E00E9472021FBFE4
:1005D000DF91CF911F910F91FF90EF90DF90CF901F
:1005E0000895CF93DF938FB7F894209139293091F4
:1005F0003A2940913B2950913C29E091BA0A9091C7
:10060000B60A90FF06C02F5F3F4F4F4F5F4FE091FC
:10061000BA0A8FBFA0913729B0913829C0913529E6
:10062000D09136290E94A10CEC9F9001ED9F300DD6
:100630001124620F731F811D911DDF91CF910895C9
:10064000AF92BF92CF92DF92EF92FF920F931F93E0
:10065000CF93DF936C017B018B01040F151FEB011E
:100660005E01AE18BF08C017D10759F06991D601D5
:10067000ED91FC910190F081E02DC6010995892B47
:1006800079F7C501DF91CF911F910F91FF90EF9006
:10069000DF90CF90BF90AF90089581E008950F93C1
:1006A00091E090932A291092292960932729709329
:1006B0002829409326292093252910922429109235
:1006C000232900932229880F8093212923E030E0F9
:1006D00044E050E080912629882341F020931F298F
:1006E00030932029809121298E7F0BC0809125296C
:1006F000882351F040931F2950932029809121296C
:1007000081608093A70808C080912629811104C0C8
:1007100080912529882311F3809129298823E1F3E9
:10072000809129298330B1F280912529882321F0F5
:10073000809123290F91089580912929823031F0E9
:10074000853031F0813031F480E0F4CF81E0F2CFB8
:1007500083E0F0CF84E0EECFE0EAF8E091859066A8
:10076000918722E030E020931F2930932029809345
:10077000112910921029089581E080931029109278
:10078000112993E09093AA089091AB0891FF10C0B3
:1007900010921D29E0910E29F0910F29099580935F
:1007A0001C2985E090E080931F29909320290895CB
:1007B00010921E2980931B2986E090E0F4CF8F923F
:1007C0009F92AF92BF92CF92DF92EF92FF92CF9320
:1007D000DF9360342DE0720723E08207910508F46F
:1007E00054C0611525E372072CE08207910508F4D7
:1007F00045C060387F448241910508F046C0C8E793
:10080000D0E020E432E44FE050E080900028909067
:100810000128A0900228B0900328C501B4010E94CD
:10082000600C69017A018AE0C81AD108E108F10870
:10083000C501B40120E432E44FE050E00E94600CB6
:10084000DE010E94A10C28EE33E040E050E00E945F
:10085000600CC21AD30AE40AF50AF694E794D79416
:10086000C794C092A608DF91CF91FF90EF90DF90E0
:10087000CF90BF90AF909F908F900895CCE2D1E041
:1008800020E83AE146E050E0C0CFC8EED3E020EAED
:1008900036E841E050E0B9CF60930C2970930D2900
:1008A000089560930A2970930B290895E0910C290B
:1008B000F0910D29309741F01092092910920829E2
:1008C000099580910829089580E00895E0910A290A
:1008D000F0910B29309759F0309107292091062982
:1008E000321728F010920729809306290994089559
:1008F0000895E091072980910629E81730F4F0E087
:10090000EA57F74D808190E008958FEF9FEF0895AB
:1009100090910729809106292FEF3FEF981748F40F
:10092000E92FF0E0EA57F74D208130E09F5F909388
:100930000729C90108958091062990910729891BEB
:10094000990B0895CF92DF92EF92FF920F931F932E
:10095000CF93DF937C018A01EB016B01C40ED51E9E
:10096000CC15DD0551F06991D701ED91FC91019015
:10097000F081E02DC7010995F3CFC801DF91CF9138
:100980001F910F91FF90EF90DF90CF9008952091ED
:10099000082927FF08C021E030E0FC0122833383CF
:1009A00090E080E0089580910929E82FF0E0EA5F67
:1009B000F74D60838F5F809309298093082981E038
:1009C00090E00895DC01ED91FC91008CF18DE02D1B
:1009D00061E009940F9380911F299091202901973C
:1009E000A1F480912A29811112C0062F20E04091A4
:1009F000082966E078E2809105280E944F03109252
:100A00000929109208290F91089580E0F8CF81E01C
:100A1000F6CF6093052810920929109208290895AD
:100A2000DC01ED91FC91048CF58DE02D21E0099421
:100A30000F9386E898E2809312299093132980916E
:100A40001F29909120290197C9F480912A298111A9
:100A500017C0FA014138510510F0E0E8F0E0022F2C
:100A6000862F2E2F40E070E060E00E944F0310922E
:100A700007298093062990E00F91089580E0F7CF31
:100A800081E0F5CFCB01BA010C94DF03E0EAF8E096
:100A90001382168281E085831486118610921F29A5
:100AA0001092202908951092072910920629109279
:100AB00009291092082980911F2990912029892BBA
:100AC000D9F482E090E080931F299093202910921E
:100AD0001E2910921D29109210291092112910928E
:100AE000042810921B29660F6093AC0881EE809356
:100AF000A90881E08093A30886E594E080930E29FD
:100B000090930F2986E098E28093142990931529F9
:100B100086E694E08093192990931A2986E898E252
:100B2000809316299093172980E8809318290895B7
:100B3000109207291092062910920929109208296B
:100B400080911F2990912029892B41F562E070E066
:100B500086E10E94AA0162E070E087E10E94AA019A
:100B60008091E3058093E30581E090E080931F2965
:100B700090932029109223291092242910922A2937
:100B80001092292981EC8093A30860EA76E881E03D
:100B900090E00E94DF0381E08093A508089590E033
:100BA00080E00895FC01862FF894938162E070E064
:100BB000911102C070E060E00E9472027894089582
:100BC000CF93C62FF894FC018381882339F06B32D0
:100BD00028F470E060E08C2F0E940A0261E070E06F
:100BE0008C2F0E9472027894CF910895CF92DF9259
:100BF000EF92FF920F931F93CF93DF93EC01E62EBA
:100C000008E010E080E8F82E9BE0C92ED12C698125
:100C10008E2D8F2109F43DC0CE010E94D2056A813C
:100C2000CE010E94D205C6010197F1F76A81CE017B
:100C30000E94E005F6940150110949F76981CE013F
:100C40000E94D2056A81CE010E94D20583E090E025
:100C50000197F1F7898110E08B3218F40E944D0260
:100C6000182F6A81CE010E94E00583E090E0019791
:100C7000F1F76981CE010E94E00581E0111180E069
:100C8000DF91CF911F910F91FF90EF90DF90CF9068
:100C90000895CE010E94E005C2CF0F931F93CF931A
:100CA000DF938C01FC0161810E94E005CBE0D0E084
:100CB000CE010197F1F7F8016281C8010E94D205C7
:100CC000CE010197F1F7F8016181C8010E94D205B8
:100CD0002197F1F7DF91CF911F910F9108951F9305
:100CE000CF93DF93EC01162F69810E94E0058BE022
:100CF00090E00197F1F76A81CE010E94E005612F33
:100D0000CE01DF91CF911F910C94F605CF93DF9325
:100D1000EC0189818B3220F470E060E00E940A02CD
:100D20008A818B3220F470E060E00E940A026981BF
:100D3000CE010E94D2056A81CE010E94D20589812E
:100D40008B3210F020E00CC00E944D02892BD1F3B1
:100D50008A818B32B8F70E944D0221E0892B91F3F2
:100D6000822FDF91CF910895DC01ED91FC910088F5
:100D7000F189E02D23E030E00994EF92FF920F9388
:100D80001F93CF93DF93EC0169810E94D20508E0A5
:100D900010E09BE0E92EF12C110FC7010197F1F74C
:100DA0006A81CE010E94D20589818B3228F40E948B
:100DB0004D02892B09F011606A81CE010E94E00585
:100DC000015051F76981CE010E94D2056A81CE019E
:100DD0000E94D20583E0E82EF12CC7010197F1F7BC
:100DE0006A81CE010E94E005C7010197F1F7698190
:100DF000CE010E94E005812FDF91CF911F910F91CD
:100E0000FF90EF9008951F93CF93DF93EC01162F7F
:100E10006C8161600E946F06CE010E94BD06CE010A
:100E20000E944D066C81CE010E946F06612FCE019B
:100E30000E94F605CE010E944D061C811160698159
:100E4000CE010E94D2056A81CE010E94D2058BE0BC
:100E500090E00197F1F7612FCE010E946F06CE015D
:100E6000DF91CF911F910C94BD061F93CF93DF9319
:100E7000EC016B8570E00E940307182F6C8570E011
:100E8000CE010E9403071F70912FDF91CF911F9118
:100E90000895FC0101900020E9F73197AF01481B4C
:100EA000590BBC018DE399E20C9420030F931F931F
:100EB000CF93DF938C01D0E0C0E0F801EC0FFD1F71
:100EC0006491662341F08DE399E20E943701892BFA
:100ED00011F02196F2CF8CEA9DE50E9449078C0F14
:100EE0009D1FDF91CF911F910F9108958F929F9237
:100EF000AF92BF920F931F93CF93DF93CDB7DEB71F
:100F0000A197CDBFDEBF19A2423008F44AE08E019E
:100F10000F5D1F4F842E912CB12CA12CA5019401A3
:100F20000E94600CE62FB901CA01EA30DCF4E05DF2
:100F3000D801EE938D01232B242B252B79F790E0FC
:100F400080E0109719F0CD010E944907A196CDBF0E
:100F5000DEBFDF91CF911F910F91BF90AF909F9017
:100F60008F900895E95CE4CF4F925F926F927F92E9
:100F70008F929F92AF92BF92CF92DF92EF92FF92A9
:100F80006B017C01AC019B010E948E0E882381F0D5
:100F90008FEA9DE5FF90EF90DF90CF90BF90AF90EC
:100FA0009F908F907F906F905F904F900C94490727
:100FB00046015701E894B7F82FEF3FEF4FE75FE79F
:100FC000C501B4010E948E0E81110DC02FEF3FEFBD
:100FD0004FE75FE7C501B4010E94360D18161CF4F7
:100FE00083EB9DE5D7CF2FEF3FEF4FE75FE4C701DE
:100FF000B6010E941C0E18161CF487EB9DE5CACFA3
:101000002FEF3FEF4FE75FECC701B6010E94360DAF
:1010100087FDF3CF20E030E0A901C701B6010E94AF
:10102000360DB12CA12C87FF0AC06DE28DE399E249
:101030000E9437015C01F7FAF094F7F8F0942AE087
:1010400037ED43EA5BE3C701B6010E94CA0C2B01EE
:101050003C010E943B0D6B017C010E946A0D9B01CB
:10106000AC01C301B2010E94C90C2B013C014AE052
:10107000C701B6010E9476077C01EA0CFB1C8BEBD2
:101080009DE50E944907E80EF91E20E030E040E2AD
:1010900051E4C301B2010E94210E2B013C010E94C8
:1010A0003B0D4B01B12CA12C4AE0C501B4010E94BB
:1010B0007607E80EF91EC501B4010E946A0D9B0176
:1010C000AC01C301B2010E94C90C20E030E040E253
:1010D00051E40E94210E0E943B0D90E080E04AE026
:1010E0000E9476078E0D9F1DFF90EF90DF90CF90AE
:1010F000BF90AF909F908F907F906F905F904F9038
:1011000008951F920F920FB60F9211242F933F93C1
:101110004F935F936F937F938F939F93AF93BF93FF
:1011200040913129509132296091332970913429AD
:1011300080912F299091302920912D2930912E29AD
:10114000420F531F611D711D20912B2930912C29B5
:10115000820F931F883E23E0920730F0885E934011
:101160004F5F5F4F6F4F7F4F80932F2990933029B0
:101170004093312950933229609333297093342955
:101180008091392990913A29A0913B29B0913C292D
:101190000196A11DB11D8093392990933A29A093FE
:1011A0003B29B0933C2981E08093B60ABF91AF916F
:1011B0009F918F917F916F915F914F913F912F916F
:1011C0000F900FBE0F901F9018951F920F920FB6A1
:1011D0000F9211242F933F934F935F936F937F93BD
:1011E0008F939F93AF93BF93EF93FF938DE399E218
:1011F0000E94F200FF91EF91BF91AF919F918F916B
:101200007F916F915F914F913F912F910F900FBE02
:101210000F901F9018951F920F920FB60F921124E6
:101220002F933F934F935F936F937F938F939F93EE
:10123000AF93BF93EF93FF93E0914929F0914A292F
:10124000818181FD2FC0608180914F298F5F8F73D5
:1012500090915029891741F0E0914F29F0E0E35C2B
:10126000F64D618F80934F298091D6299091D7298F
:10127000009739F0DC01ED91FC910190F081E02DB7
:101280000995FF91EF91BF91AF919F918F917F91C0
:101290006F915F914F913F912F910F900FBE0F90E3
:1012A0001F9018958081EDCF1F920F920FB60F926D
:1012B00011242F933F934F935F936F937F938F935B
:1012C0009F93AF93BF93CF93EF93FF93C091AB08DE
:1012D000C2FF0AC010921E2910921D2910921C29CB
:1012E00084E00E94AC0314C0C6FF2FC080911B296C
:1012F000813051F480911E29E0911929F0911A2929
:1013000090E0099510921B29C0FF14C00E94BC03F5
:10131000FF91EF91CF91BF91AF919F918F917F916D
:101320006F915F914F913F912F910F900FBE0F9052
:101330001F90189580E48093AB0881E00E94AC0375
:101340008091AB0885FFE4CFE1CFC7FF5CC0C3FF4E
:1013500008C010921E2910921D2910921C2983E0AA
:10136000C0CF8091A90880668093A9088091AB08BE
:1013700081FF2CC080911D29882349F08091AB0802
:1013800084FF05C082E08093AA0881E0AACF9091F3
:101390001D2980911C299817A8F4E0911D2980919E
:1013A000142990911529E80FF92FF11D8081809360
:1013B000AD0880911D298F5F80931D2983E0809364
:1013C000AA08A6CF82E08093AA088BCF90911E290D
:1013D00080911829981790F48091AD08E0911E290A
:1013E0002091162930911729E20FF32FF11D8083E8
:1013F00080911E298F5F80931E29E0CF86E0809325
:10140000AA0882E06ECF85E06CCF1F920F920FB6D4
:101410000F9211242F933F938F939F93EF93FF93FA
:101420008091A508982F9C70E1F08091A50894E028
:1014300082FF93E0909329298093A50881E090E0B2
:1014400080931F299093202910922A29FF91EF91D0
:101450009F918F913F912F910F900FBE0F901F90F2
:10146000189586FF4EC020912629909125298091BC
:10147000A50884FF15C080912229882379F083E094
:101480008093A40885E08093292910922A2981E07D
:1014900090E080931F2990932029D8CF81E0F0CF4E
:1014A00080912429821790F4E091242980912729A2
:1014B00090912829E80FF92FF11D80818093A808C9
:1014C000809124298F5F80932429C0CF8091232984
:1014D000891760F484E090E080931F29909320297D
:1014E0008091212981608093A708B0CF8091222923
:1014F000882329F083E08093A40881E0C4CF81E0B1
:10150000FACF87FF40C09091232980912529981711
:10151000D8F48091A808E0912329209112293091D4
:101520001329E20FF32FF11D8083809123298F5F10
:101530008093232990912529809123298917D8F414
:1015400082E08093A40882CF80912229882389F0A9
:1015500087E08093A40882E08093292910922A29A9
:1015600081E090E080931F299093202910922529F3
:101570006DCF85E0EECF80912229882311F087E09E
:10158000BACF85E0B8CF86E07ECFEDE3F9E21282F4
:10159000138288EE93E0A0E0B0E084839583A68375
:1015A000B78386E99DE58083918380E698E0848710
:1015B000958788E1868789E1878780E4808B128A16
:1015C000138A148A158A86E2868B178A108E1092E7
:1015D000D6291092D729E5EEF9E285E1818384E1ED
:1015E0008283A1E0A3837CE674836BE065835BE187
:1015F00056834CE1478310863CE031872DE02287FB
:101600009EE093878FE08487E8EDF9E2B3E1B18350
:10161000B2E1B283A38374836583568347831086C4
:101620003187228793878487089588ED90E084BF6F
:101630009093610080E094E2A4EFB0E080930028F2
:1016400090930128A0930228B0930328809102066A
:101650008660809302068091000681608093000678
:10166000809102068F7C809302068091A0008F7883
:101670008093A00080910206806180930206109200
:10168000E20581E08093E40583E08093010A8FEF17
:1016900090E08093260A9093270A80E890E0809358
:1016A000380A9093390A80933A0A90933B0A8093C0
:1016B0003C0A90933D0A8BE08093000A8091E505F7
:1016C00081608093E5058091E50582608093E50562
:1016D000E0E8FAE037E02FEF90E885E031832487F7
:1016E000958780837096E03C4AE0F407B9F780E084
:1016F00094E08093372990933829809137299091ED
:1017000038292FEF30E0B9010E944C0C6093352945
:10171000709336298091372990913829E8EEF3E0CB
:10172000BF010E944C0C60932D2970932E2980914B
:10173000372990913829BF010E944C0C80932B29A6
:1017400090932C292093BC0A3093BD0A8091B50A4E
:1017500081608093B50A84E08093B00A8091B00ADA
:1017600081608093B00A789440E855E260E070E0D0
:101770008DE399E20E94B40681ED90E00E94560745
:1017800085EE99E20E948606811175C088EA90E094
:101790000E945607C0E0D0E06091EA2970E085EE33
:1017A00099E20E940307C12CD12C90E8E92E9FEB0F
:1017B000F92E85FF11C085EE99E20E943507BC0124
:1017C00090E080E00E946A0D2CEA3FEF43EB5DE37E
:1017D0000E94210E6B017C016091DD2970E088ED93
:1017E00099E20E94030785FF50C088ED99E20E94AC
:1017F0003507BC0190E080E00E946A0D2CEA3FEFC3
:1018000043EB5DE30E94210E4B015C01C701B60171
:101810000E94B4078DEB9DE50E944907C501B40104
:101820000E94B4078CEA9DE50E9449070E94F102DC
:101830006B017C0120E5C20E23ECD21EE11CF11CE1
:1018400040E5C41643ECD406E104F10438F40E94E8
:10185000F102C616D706E806F906C8F30E94F1029F
:101860006C157D058E059F05C8F3209709F494CF6C
:101870000E94000091CF88ED99E20E94860688239D
:1018800009F484CF80EA90E083CF812C912C80E80A
:10189000A82E8FEBB82EBACFAA1BBB1B51E107C0F5
:1018A000AA1FBB1FA617B70710F0A61BB70B881FF0
:1018B000991F5A95A9F780959095BC01CD0108957F
:1018C000A1E21A2EAA1BBB1BFD010DC0AA1FBB1F44
:1018D000EE1FFF1FA217B307E407F50720F0A21BB6
:1018E000B30BE40BF50B661F771F881F991F1A9423
:1018F00069F760957095809590959B01AC01BD014D
:10190000CF010895052E97FB1EF400940E94990CB8
:1019100057FD07D00E94600C07FC03D04EF40C94D6
:10192000990C50954095309521953F4F4F4F5F4F03
:10193000089590958095709561957F4F8F4F9F4F3B
:1019400008950E94BA0CA59F900DB49F900DA49F7E
:10195000800D911D11240895B7FF0C94A10C0E94D5
:10196000A10C821B930B0895EE0FFF1F0590F491BD
:10197000E02D0994A29FB001B39FC001A39F700DF9
:10198000811D1124911DB29F700D811D1124911D87
:1019900008955058BB27AA270E94E10C0C94E20D31
:1019A0000E94D40D38F00E94DB0D20F039F49F3FE7
:1019B00019F426F40C94D10D0EF4E095E7FB0C9489
:1019C000CB0DE92F0E94F30D58F3BA176207730786
:1019D0008407950720F079F4A6F50C94150E0EF403
:1019E000E0950B2EBA2FA02D0B01B90190010C012F
:1019F000CA01A0011124FF27591B99F0593F50F447
:101A0000503E68F11A16F040A22F232F342F44279E
:101A1000585FF3CF469537952795A795F040539596
:101A2000C9F77EF41F16BA0B620B730B840BBAF066
:101A30009150A1F0FF0FBB1F661F771F881FC2F7D1
:101A40000EC0BA0F621F731F841F48F487957795E5
:101A50006795B795F7959E3F08F0B0CF9395880F9F
:101A600008F09927EE0F9795879508950E94A70D86
:101A700008F481E008950E94FB0D88F09F5798F0CC
:101A8000B92F9927B751B0F0E1F0660F771F881F83
:101A9000991F1AF0BA95C9F714C0B13091F00E949D
:101AA000150EB1E008950C94150E672F782F882736
:101AB000B85F39F0B93FCCF3869577956795B395C4
:101AC000D9F73EF490958095709561957F4F8F4F33
:101AD0009F4F0895E89409C097FB3EF49095809538
:101AE000709561957F4F8F4F9F4F9923A9F0F92FE4
:101AF00096E9BB279395F695879577956795B79562
:101B0000F111F8CFFAF4BB0F11F460FF1BC06F5F47
:101B10007F4F8F4F9F4F16C0882311F096E911C059
:101B2000772321F09EE8872F762F05C0662371F07A
:101B300096E8862F70E060E02AF09A95660F771F8E
:101B4000881FDAF7880F9695879597F90895990F6A
:101B50000008550FAA0BE0E8FEEF16161706E80777
:101B6000F907C0F012161306E407F50798F0621B98
:101B7000730B840B950B39F40A2661F0232B242B6D
:101B8000252B21F408950A2609F4A140A6958FEF8C
:101B9000811D811D089597F99F6780E870E060E0DE
:101BA00008959FEF80EC089500240A9416161706F6
:101BB00018060906089500240A941216130614063E
:101BC00005060895092E0394000C11F4882352F0A1
:101BD000BB0F40F4BF2B11F460FF04C06F5F7F4F59
:101BE0008F4F9F4F089557FD9058440F551F59F040
:101BF0005F3F71F04795880F97FB991F61F09F3FFA
:101C000079F087950895121613061406551FF2CF22
:101C10004695F1DF08C0161617061806991FF1CF72
:101C200086957105610508940895E894BB27662799
:101C30007727CB0197F908950E94A70D08F48FEF3D
:101C400008950E94340E0C94E20D0E94D40D38F0D9
:101C50000E94DB0D20F0952311F00C94CB0D0C9419
:101C6000D10D11240C94160E0E94F30D70F3959F64
:101C7000C1F3950F50E0551F629FF001729FBB2783
:101C8000F00DB11D639FAA27F00DB11DAA1F649F1F
:101C90006627B00DA11D661F829F2227B00DA11DD2
:101CA000621F739FB00DA11D621F839FA00D611D58
:101CB000221F749F3327A00D611D231F849F600D79
:101CC000211D822F762F6A2F11249F5750409AF0A2
:101CD000F1F088234AF0EE0FFF1FBB1F661F771F2E
:101CE000881F91505040A9F79E3F510580F00C94F9
:101CF000CB0D0C94160E5F3FE4F3983ED4F386951B
:101D000077956795B795F795E7959F5FC1F7FE2B98
:101D1000880F911D9695879597F908950E94A70DB4
:0A1D2000880B990B0895F894FFCF8B
:101D2A0000000003000102000001010000000000A1
:101D3A000000000000000000000005040005060283
:101D4A000401030001000102030201000203040569
:101D5A000203050402020005020105000401010450
:101D6A000404030303030505030300000101201013
:101D7A0001204004100208010201020408040201C1
:101D8A000408102004082010000000003701200376
:101D9A009C008801CD00AB00BF00B4067702D900D1
:101DAA004D030D0A006E616E00696E66006F7666FD
:061DBA00002E00202000B5
:041DC0000024F40007
:00000001FF
